{
  "contractName": "CrowdFund",
  "abi": [
    {
      "inputs": [],
      "stateMutability": "nonpayable",
      "type": "constructor"
    },
    {
      "inputs": [
        {
          "internalType": "address",
          "name": "",
          "type": "address"
        }
      ],
      "name": "balances",
      "outputs": [
        {
          "internalType": "uint256",
          "name": "",
          "type": "uint256"
        }
      ],
      "stateMutability": "view",
      "type": "function",
      "constant": true
    },
    {
      "inputs": [],
      "name": "owner",
      "outputs": [
        {
          "internalType": "address",
          "name": "",
          "type": "address"
        }
      ],
      "stateMutability": "view",
      "type": "function",
      "constant": true
    },
    {
      "inputs": [],
      "name": "fund",
      "outputs": [],
      "stateMutability": "payable",
      "type": "function",
      "payable": true
    },
    {
      "inputs": [],
      "name": "balanceOf",
      "outputs": [
        {
          "internalType": "uint256",
          "name": "",
          "type": "uint256"
        }
      ],
      "stateMutability": "view",
      "type": "function",
      "constant": true
    },
    {
      "inputs": [],
      "name": "withdraw",
      "outputs": [
        {
          "internalType": "bool",
          "name": "",
          "type": "bool"
        }
      ],
      "stateMutability": "nonpayable",
      "type": "function"
    }
  ],
  "bytecode": "0x608060405234801561001057600080fd5b50336000806101000a81548173ffffffffffffffffffffffffffffffffffffffff021916908373ffffffffffffffffffffffffffffffffffffffff160217905550610533806100606000396000f3fe60806040526004361061004a5760003560e01c806327e235e31461004f5780633ccfd60b1461008c578063722713f7146100b75780638da5cb5b146100e2578063b60d42881461010d575b600080fd5b34801561005b57600080fd5b506100766004803603810190610071919061033a565b610117565b6040516100839190610380565b60405180910390f35b34801561009857600080fd5b506100a161012f565b6040516100ae91906103b6565b60405180910390f35b3480156100c357600080fd5b506100cc610253565b6040516100d99190610380565b60405180910390f35b3480156100ee57600080fd5b506100f761025b565b60405161010491906103e0565b60405180910390f35b61011561027f565b005b60016020528060005260406000206000915090505481565b60008060009054906101000a900473ffffffffffffffffffffffffffffffffffffffff1673ffffffffffffffffffffffffffffffffffffffff163373ffffffffffffffffffffffffffffffffffffffff16146101c0576040517f08c379a00000000000000000000000000000000000000000000000000000000081526004016101b790610458565b60405180910390fd5b3373ffffffffffffffffffffffffffffffffffffffff166108fc479081150290604051600060405180830381858888f19350505050158015610206573d6000803e3d6000fd5b506000600160003073ffffffffffffffffffffffffffffffffffffffff1673ffffffffffffffffffffffffffffffffffffffff168152602001908152602001600020819055506001905090565b600047905090565b60008054906101000a900473ffffffffffffffffffffffffffffffffffffffff1681565b34600160003073ffffffffffffffffffffffffffffffffffffffff1673ffffffffffffffffffffffffffffffffffffffff16815260200190815260200160002060008282546102ce91906104a7565b92505081905550565b600080fd5b600073ffffffffffffffffffffffffffffffffffffffff82169050919050565b6000610307826102dc565b9050919050565b610317816102fc565b811461032257600080fd5b50565b6000813590506103348161030e565b92915050565b6000602082840312156103505761034f6102d7565b5b600061035e84828501610325565b91505092915050565b6000819050919050565b61037a81610367565b82525050565b60006020820190506103956000830184610371565b92915050565b60008115159050919050565b6103b08161039b565b82525050565b60006020820190506103cb60008301846103a7565b92915050565b6103da816102fc565b82525050565b60006020820190506103f560008301846103d1565b92915050565b600082825260208201905092915050565b7f796f7520617265206e6f742061206f776e657200000000000000000000000000600082015250565b60006104426013836103fb565b915061044d8261040c565b602082019050919050565b6000602082019050818103600083015261047181610435565b9050919050565b7f4e487b7100000000000000000000000000000000000000000000000000000000600052601160045260246000fd5b60006104b282610367565b91506104bd83610367565b9250827fffffffffffffffffffffffffffffffffffffffffffffffffffffffffffffffff038211156104f2576104f1610478565b5b82820190509291505056fea26469706673582212208a8fa6c0720fea17b01cc9f8622b4ac5579da863c857a76b9b8ca98a556e6a4b64736f6c634300080e0033",
  "immutableReferences": {},
  "source": "//SPDX-License-Identifier: MIT\r\npragma solidity ^0.8.14;\r\n\r\ncontract CrowdFund{\r\n    address public owner;\r\n\r\n    constructor(){\r\n        owner = msg.sender;\r\n    }\r\n    mapping(address => uint) public balances;\r\n    \r\n    function fund() public payable{\r\n        balances[address(this)] += msg.value;\r\n    }\r\n    function balanceOf() public view returns(uint){\r\n        return(address(this).balance);\r\n    }\r\n    function withdraw() public returns(bool){\r\n        require(msg.sender == owner, \"you are not a owner\");\r\n        payable(msg.sender).transfer(address(this).balance);\r\n        balances[address(this)] = 0;\r\n        return true;\r\n    }    \r\n    \r\n}",
  "sourcePath": "C:\\Users\\hariharan\\OneDrive\\Documents\\crowd fund\\truffle\\contracts\\CrowdFund.sol",
  "compiler": {
    "name": "solc",
    "version": "0.8.14+commit.80d49f37.Emscripten.clang"
  },
  "schemaVersion": "3.4.5",
  "updatedAt": "2022-09-30T06:09:24.552Z",
  "networkType": "ethereum",
  "devdoc": {
    "kind": "dev",
    "methods": {},
    "version": 1
  },
  "userdoc": {
    "kind": "user",
    "methods": {},
    "version": 1
  }
}